{
	"Users/smruthidanda/FinTech_Workspace/Projects/WE-2/Transactions.sol": {
		"Transaction": {
			"abi": [
				{
					"constant": true,
					"inputs": [],
					"name": "accountBalance",
					"outputs": [
						{
							"name": "",
							"type": "uint256"
						}
					],
					"payable": false,
					"stateMutability": "view",
					"type": "function"
				},
				{
					"constant": false,
					"inputs": [
						{
							"name": "amount",
							"type": "uint256"
						},
						{
							"name": "recipient",
							"type": "address"
						}
					],
					"name": "transfer",
					"outputs": [],
					"payable": false,
					"stateMutability": "nonpayable",
					"type": "function"
				},
				{
					"constant": false,
					"inputs": [],
					"name": "deposit",
					"outputs": [],
					"payable": true,
					"stateMutability": "payable",
					"type": "function"
				},
				{
					"payable": true,
					"stateMutability": "payable",
					"type": "fallback"
				}
			],
			"devdoc": {
				"methods": {}
			},
			"evm": {
				"assembly": "    /* \"Users/smruthidanda/FinTech_Workspace/Projects/WE-2/Transactions.sol\":25:501  contract Transaction {... */\n  mstore(0x40, 0x80)\n  callvalue\n    /* \"--CODEGEN--\":8:17   */\n  dup1\n    /* \"--CODEGEN--\":5:7   */\n  iszero\n  tag_1\n  jumpi\n    /* \"--CODEGEN--\":30:31   */\n  0x0\n    /* \"--CODEGEN--\":27:28   */\n  dup1\n    /* \"--CODEGEN--\":20:32   */\n  revert\n    /* \"--CODEGEN--\":5:7   */\ntag_1:\n    /* \"Users/smruthidanda/FinTech_Workspace/Projects/WE-2/Transactions.sol\":25:501  contract Transaction {... */\n  pop\n  dataSize(sub_0)\n  dup1\n  dataOffset(sub_0)\n  0x0\n  codecopy\n  0x0\n  return\nstop\n\nsub_0: assembly {\n        /* \"Users/smruthidanda/FinTech_Workspace/Projects/WE-2/Transactions.sol\":25:501  contract Transaction {... */\n      mstore(0x40, 0x80)\n      jumpi(tag_1, lt(calldatasize, 0x4))\n      calldataload(0x0)\n      0x100000000000000000000000000000000000000000000000000000000\n      swap1\n      div\n      0xffffffff\n      and\n      dup1\n      0xb0a1c1c4\n      eq\n      tag_2\n      jumpi\n      dup1\n      0xb7760c8f\n      eq\n      tag_3\n      jumpi\n      dup1\n      0xd0e30db0\n      eq\n      tag_4\n      jumpi\n    tag_1:\n      stop\n        /* \"Users/smruthidanda/FinTech_Workspace/Projects/WE-2/Transactions.sol\":180:206  uint public accountBalance */\n    tag_2:\n      callvalue\n        /* \"--CODEGEN--\":8:17   */\n      dup1\n        /* \"--CODEGEN--\":5:7   */\n      iszero\n      tag_7\n      jumpi\n        /* \"--CODEGEN--\":30:31   */\n      0x0\n        /* \"--CODEGEN--\":27:28   */\n      dup1\n        /* \"--CODEGEN--\":20:32   */\n      revert\n        /* \"--CODEGEN--\":5:7   */\n    tag_7:\n        /* \"Users/smruthidanda/FinTech_Workspace/Projects/WE-2/Transactions.sol\":180:206  uint public accountBalance */\n      pop\n      tag_8\n      jump(tag_9)\n    tag_8:\n      mload(0x40)\n      dup1\n      dup3\n      dup2\n      mstore\n      0x20\n      add\n      swap2\n      pop\n      pop\n      mload(0x40)\n      dup1\n      swap2\n      sub\n      swap1\n      return\n        /* \"Users/smruthidanda/FinTech_Workspace/Projects/WE-2/Transactions.sol\":212:368  function transfer(uint amount, address payable recipient) public {... */\n    tag_3:\n      callvalue\n        /* \"--CODEGEN--\":8:17   */\n      dup1\n        /* \"--CODEGEN--\":5:7   */\n      iszero\n      tag_10\n      jumpi\n        /* \"--CODEGEN--\":30:31   */\n      0x0\n        /* \"--CODEGEN--\":27:28   */\n      dup1\n        /* \"--CODEGEN--\":20:32   */\n      revert\n        /* \"--CODEGEN--\":5:7   */\n    tag_10:\n        /* \"Users/smruthidanda/FinTech_Workspace/Projects/WE-2/Transactions.sol\":212:368  function transfer(uint amount, address payable recipient) public {... */\n      pop\n      tag_11\n      0x4\n      dup1\n      calldatasize\n      sub\n        /* \"--CODEGEN--\":13:15   */\n      0x40\n        /* \"--CODEGEN--\":8:11   */\n      dup2\n        /* \"--CODEGEN--\":5:16   */\n      lt\n        /* \"--CODEGEN--\":2:4   */\n      iszero\n      tag_12\n      jumpi\n        /* \"--CODEGEN--\":29:30   */\n      0x0\n        /* \"--CODEGEN--\":26:27   */\n      dup1\n        /* \"--CODEGEN--\":19:31   */\n      revert\n        /* \"--CODEGEN--\":2:4   */\n    tag_12:\n        /* \"Users/smruthidanda/FinTech_Workspace/Projects/WE-2/Transactions.sol\":212:368  function transfer(uint amount, address payable recipient) public {... */\n      dup2\n      add\n      swap1\n      dup1\n      dup1\n      calldataload\n      swap1\n      0x20\n      add\n      swap1\n      swap3\n      swap2\n      swap1\n      dup1\n      calldataload\n      0xffffffffffffffffffffffffffffffffffffffff\n      and\n      swap1\n      0x20\n      add\n      swap1\n      swap3\n      swap2\n      swap1\n      pop\n      pop\n      pop\n      jump(tag_13)\n    tag_11:\n      stop\n        /* \"Users/smruthidanda/FinTech_Workspace/Projects/WE-2/Transactions.sol\":374:463  function deposit() public payable {... */\n    tag_4:\n      tag_14\n      jump(tag_15)\n    tag_14:\n      stop\n        /* \"Users/smruthidanda/FinTech_Workspace/Projects/WE-2/Transactions.sol\":180:206  uint public accountBalance */\n    tag_9:\n      sload(0x0)\n      dup2\n      jump\t// out\n        /* \"Users/smruthidanda/FinTech_Workspace/Projects/WE-2/Transactions.sol\":212:368  function transfer(uint amount, address payable recipient) public {... */\n    tag_13:\n        /* \"Users/smruthidanda/FinTech_Workspace/Projects/WE-2/Transactions.sol\":287:296  recipient */\n      dup1\n        /* \"Users/smruthidanda/FinTech_Workspace/Projects/WE-2/Transactions.sol\":287:305  recipient.transfer */\n      0xffffffffffffffffffffffffffffffffffffffff\n      and\n        /* \"Users/smruthidanda/FinTech_Workspace/Projects/WE-2/Transactions.sol\":287:313  recipient.transfer(amount) */\n      0x8fc\n        /* \"Users/smruthidanda/FinTech_Workspace/Projects/WE-2/Transactions.sol\":306:312  amount */\n      dup4\n        /* \"Users/smruthidanda/FinTech_Workspace/Projects/WE-2/Transactions.sol\":287:313  recipient.transfer(amount) */\n      swap1\n      dup2\n      iszero\n      mul\n      swap1\n      mload(0x40)\n      0x0\n      mload(0x40)\n      dup1\n      dup4\n      sub\n      dup2\n      dup6\n      dup9\n      dup9\n      call\n      swap4\n      pop\n      pop\n      pop\n      pop\n      iszero\n        /* \"--CODEGEN--\":8:17   */\n      dup1\n        /* \"--CODEGEN--\":5:7   */\n      iszero\n      tag_17\n      jumpi\n        /* \"--CODEGEN--\":45:61   */\n      returndatasize\n        /* \"--CODEGEN--\":42:43   */\n      0x0\n        /* \"--CODEGEN--\":39:40   */\n      dup1\n        /* \"--CODEGEN--\":24:62   */\n      returndatacopy\n        /* \"--CODEGEN--\":77:93   */\n      returndatasize\n        /* \"--CODEGEN--\":74:75   */\n      0x0\n        /* \"--CODEGEN--\":67:94   */\n      revert\n        /* \"--CODEGEN--\":5:7   */\n    tag_17:\n        /* \"Users/smruthidanda/FinTech_Workspace/Projects/WE-2/Transactions.sol\":287:313  recipient.transfer(amount) */\n      pop\n        /* \"Users/smruthidanda/FinTech_Workspace/Projects/WE-2/Transactions.sol\":348:352  this */\n      address\n        /* \"Users/smruthidanda/FinTech_Workspace/Projects/WE-2/Transactions.sol\":340:361  address(this).balance */\n      0xffffffffffffffffffffffffffffffffffffffff\n      and\n      balance\n        /* \"Users/smruthidanda/FinTech_Workspace/Projects/WE-2/Transactions.sol\":323:337  accountBalance */\n      0x0\n        /* \"Users/smruthidanda/FinTech_Workspace/Projects/WE-2/Transactions.sol\":323:361  accountBalance = address(this).balance */\n      dup2\n      swap1\n      sstore\n      pop\n        /* \"Users/smruthidanda/FinTech_Workspace/Projects/WE-2/Transactions.sol\":212:368  function transfer(uint amount, address payable recipient) public {... */\n      pop\n      pop\n      jump\t// out\n        /* \"Users/smruthidanda/FinTech_Workspace/Projects/WE-2/Transactions.sol\":374:463  function deposit() public payable {... */\n    tag_15:\n        /* \"Users/smruthidanda/FinTech_Workspace/Projects/WE-2/Transactions.sol\":443:447  this */\n      address\n        /* \"Users/smruthidanda/FinTech_Workspace/Projects/WE-2/Transactions.sol\":435:456  address(this).balance */\n      0xffffffffffffffffffffffffffffffffffffffff\n      and\n      balance\n        /* \"Users/smruthidanda/FinTech_Workspace/Projects/WE-2/Transactions.sol\":418:432  accountBalance */\n      0x0\n        /* \"Users/smruthidanda/FinTech_Workspace/Projects/WE-2/Transactions.sol\":418:456  accountBalance = address(this).balance */\n      dup2\n      swap1\n      sstore\n      pop\n        /* \"Users/smruthidanda/FinTech_Workspace/Projects/WE-2/Transactions.sol\":374:463  function deposit() public payable {... */\n      jump\t// out\n\n    auxdata: 0xa165627a7a723058200f396f6ecd4267429f8528fd86015111bded56ac801e8a3f7936cacdff9a0c8e0029\n}\n",
				"bytecode": {
					"linkReferences": {},
					"object": "608060405234801561001057600080fd5b506101a4806100206000396000f3fe608060405260043610610057576000357c0100000000000000000000000000000000000000000000000000000000900463ffffffff168063b0a1c1c414610059578063b7760c8f14610084578063d0e30db0146100df575b005b34801561006557600080fd5b5061006e6100e9565b6040518082815260200191505060405180910390f35b34801561009057600080fd5b506100dd600480360360408110156100a757600080fd5b8101908080359060200190929190803573ffffffffffffffffffffffffffffffffffffffff1690602001909291905050506100ef565b005b6100e7610158565b005b60005481565b8073ffffffffffffffffffffffffffffffffffffffff166108fc839081150290604051600060405180830381858888f19350505050158015610135573d6000803e3d6000fd5b503073ffffffffffffffffffffffffffffffffffffffff16316000819055505050565b3073ffffffffffffffffffffffffffffffffffffffff163160008190555056fea165627a7a723058200f396f6ecd4267429f8528fd86015111bded56ac801e8a3f7936cacdff9a0c8e0029",
					"opcodes": "PUSH1 0x80 PUSH1 0x40 MSTORE CALLVALUE DUP1 ISZERO PUSH2 0x10 JUMPI PUSH1 0x0 DUP1 REVERT JUMPDEST POP PUSH2 0x1A4 DUP1 PUSH2 0x20 PUSH1 0x0 CODECOPY PUSH1 0x0 RETURN INVALID PUSH1 0x80 PUSH1 0x40 MSTORE PUSH1 0x4 CALLDATASIZE LT PUSH2 0x57 JUMPI PUSH1 0x0 CALLDATALOAD PUSH29 0x100000000000000000000000000000000000000000000000000000000 SWAP1 DIV PUSH4 0xFFFFFFFF AND DUP1 PUSH4 0xB0A1C1C4 EQ PUSH2 0x59 JUMPI DUP1 PUSH4 0xB7760C8F EQ PUSH2 0x84 JUMPI DUP1 PUSH4 0xD0E30DB0 EQ PUSH2 0xDF JUMPI JUMPDEST STOP JUMPDEST CALLVALUE DUP1 ISZERO PUSH2 0x65 JUMPI PUSH1 0x0 DUP1 REVERT JUMPDEST POP PUSH2 0x6E PUSH2 0xE9 JUMP JUMPDEST PUSH1 0x40 MLOAD DUP1 DUP3 DUP2 MSTORE PUSH1 0x20 ADD SWAP2 POP POP PUSH1 0x40 MLOAD DUP1 SWAP2 SUB SWAP1 RETURN JUMPDEST CALLVALUE DUP1 ISZERO PUSH2 0x90 JUMPI PUSH1 0x0 DUP1 REVERT JUMPDEST POP PUSH2 0xDD PUSH1 0x4 DUP1 CALLDATASIZE SUB PUSH1 0x40 DUP2 LT ISZERO PUSH2 0xA7 JUMPI PUSH1 0x0 DUP1 REVERT JUMPDEST DUP2 ADD SWAP1 DUP1 DUP1 CALLDATALOAD SWAP1 PUSH1 0x20 ADD SWAP1 SWAP3 SWAP2 SWAP1 DUP1 CALLDATALOAD PUSH20 0xFFFFFFFFFFFFFFFFFFFFFFFFFFFFFFFFFFFFFFFF AND SWAP1 PUSH1 0x20 ADD SWAP1 SWAP3 SWAP2 SWAP1 POP POP POP PUSH2 0xEF JUMP JUMPDEST STOP JUMPDEST PUSH2 0xE7 PUSH2 0x158 JUMP JUMPDEST STOP JUMPDEST PUSH1 0x0 SLOAD DUP2 JUMP JUMPDEST DUP1 PUSH20 0xFFFFFFFFFFFFFFFFFFFFFFFFFFFFFFFFFFFFFFFF AND PUSH2 0x8FC DUP4 SWAP1 DUP2 ISZERO MUL SWAP1 PUSH1 0x40 MLOAD PUSH1 0x0 PUSH1 0x40 MLOAD DUP1 DUP4 SUB DUP2 DUP6 DUP9 DUP9 CALL SWAP4 POP POP POP POP ISZERO DUP1 ISZERO PUSH2 0x135 JUMPI RETURNDATASIZE PUSH1 0x0 DUP1 RETURNDATACOPY RETURNDATASIZE PUSH1 0x0 REVERT JUMPDEST POP ADDRESS PUSH20 0xFFFFFFFFFFFFFFFFFFFFFFFFFFFFFFFFFFFFFFFF AND BALANCE PUSH1 0x0 DUP2 SWAP1 SSTORE POP POP POP JUMP JUMPDEST ADDRESS PUSH20 0xFFFFFFFFFFFFFFFFFFFFFFFFFFFFFFFFFFFFFFFF AND BALANCE PUSH1 0x0 DUP2 SWAP1 SSTORE POP JUMP INVALID LOG1 PUSH6 0x627A7A723058 KECCAK256 0xf CODECOPY PUSH16 0x6ECD4267429F8528FD86015111BDED56 0xac DUP1 0x1e DUP11 EXTCODEHASH PUSH26 0x36CACDFF9A0C8E00290000000000000000000000000000000000 "
				},
				"gasEstimates": {
					"creation": {
						"codeDepositCost": "84000",
						"executionCost": "135",
						"totalCost": "84135"
					},
					"external": {
						"": "129",
						"accountBalance()": "394",
						"deposit()": "20572",
						"transfer(uint256,address)": "infinite"
					}
				},
				"methodIdentifiers": {
					"accountBalance()": "b0a1c1c4",
					"deposit()": "d0e30db0",
					"transfer(uint256,address)": "b7760c8f"
				}
			},
			"userdoc": {
				"methods": {}
			}
		}
	}
}